:020000040800F2
:1000000000000220A9030008F1030008F103000822
:10001000F1030008F1030008F103000800000000EC
:10002000000000000000000000000000F1030008D4
:10003000F103000800000000F1030008F1030008CC
:10004000F1030008F1030008F1030008F1030008C0
:10005000F1030008F1030008F1030008F1030008B0
:10006000F1030008F1030008F1030008F1030008A0
:10007000F1030008F1030008F1030008F103000890
:10008000F1030008F1030008F1030008F103000880
:10009000F1030008F1030008F1030008F103000870
:1000A000F1030008F1030008F1030008F103000860
:1000B000F1030008F1030008F1030008F103000850
:1000C000F1030008F1030008F1030008F103000840
:1000D000F1030008F1030008F1030008F103000830
:1000E000F1030008F1030008F1030008F103000820
:1000F000F1030008F1030008F1030008F103000810
:10010000F1030008F1030008F1030008F1030008FF
:10011000F1030008F1030008F1030008F1030008EF
:10012000F1030008F1030008F1030008F1030008DF
:10013000F1030008F1030008F1030008F1030008CF
:10014000F1030008F1030008F1030008F1030008BF
:10015000F1030008F1030008F1030008F1030008AF
:10016000F1030008F1030008F1030008F10300089F
:10017000F1030008F1030008F1030008F10300088F
:08018000F1030008F10300087F
:1001880010B5054C237833B9044B13B10448AFF3C9
:1001980000800123237010BD4C04002000000000E3
:1001A800B406000808B5034B1BB103490348AFF375
:1001B800008008BD0000000050040020B4060008BC
:1001C800154B002B08BF134B9D46A3F5803A002121
:1001D8008B460F461348144A121A00F03BF90F4B8E
:1001E800002B00D098470E4B002B00D098470020DA
:1001F800002104000D000D48002802D00C4800F032
:10020800DBF900F003F92000290000F0C7F800F03E
:10021800EDF800BF0000080000000000000000002A
:10022800000000004C0400208C040020C1050008D8
:10023800CD050008344B35481A68002142F0010208
:100248001A6099601A6822F0847222F480321A6067
:1002580058601A6882B022F480221A60D96000912E
:1002680001911A6842F480321A6003E0009AB2F5EC
:10027800A06F09D01A6802F400320192009A013284
:100288000092019A002AF1D01F4B1B6813F4003327
:1002980018BF01230193019B012B05D01C4B4FF084
:1002A80000629A6002B07047174B1A491A6C1A48D4
:1002B80042F080521A640A6842F480420A609A68DE
:1002C8009A609A6842F400429A609A6842F4A0528E
:1002D8009A6058601A6842F080721A601A6892012F
:1002E800FCD50E4A084940F2056010609A6822F071
:1002F80003029A609A6842F002029A608B6803F0DF
:100308000C03082BFAD1C9E700380240103000244A
:1003180000ED00E00070004008544007003C024037
:10032800154A936803F00C03042B0BD0082B0BD051
:10033800124B114A12499268C2F303128A5CD340E5
:100348000B6170470F4BF4E75068516852684302DD
:10035800C2F3881201F03F014CBF0A4B074BB3FBB5
:10036800F1F303FB02F3044A5268C2F3014201327B
:100378005200B3FBF2F3DCE7003802400024F4003B
:100388000400002000127A00E406000800000020A3
:100398004C0400204C0400208C040020FEE700BF21
:1003A800002103E00B4B5B58435004310A480B4BC8
:1003B80042189A42F6D30A4A02E0002342F8043B64
:1003C800084B9A42F9D3FFF735FF00F01FF8FFF703
:1003D800E5FF7047E4060008000000204C040020F8
:1003E8004C0400208C040020FEE7000008B5002122
:1003F800044600F089F8044B1868C36B03B19847AA
:10040800204600F061F900BFB006000870B50D4E37
:100418000D4D761BB61006D00024013455F8043B68
:100428009847A642F9D1094E094D761B00F040F9CC
:10043800B61006D00024013455F8043B9847A6426C
:10044800F9D170BDD8060008D8060008E0060008F3
:10045800D8060008F0B4860746D0541E002A3CD0BF
:10046800CAB2034602E014F1FF3436D303F8012B75
:100478009D07F8D1032C29D9CDB245EA05250F2CC3
:1004880045EA054533D9A4F11006360903F12007DA
:1004980007EB061703F1100242E9045542E9025539
:1004A8001032BA42F8D1721C14F00C0F03EB02128E
:1004B80004F00F0613D0331F23F00303043313444F
:1004C80042F8045B9342FBD106F003042CB1C9B295
:1004D8001C4403F8011B9C42FBD1F0BC7047344616
:1004E8001346002CF3D1F8E714460346C2E71A4630
:1004F8002646E0E7024B13B1024800F05DB87047AA
:1005080000000000CD0500082DE9F04F284B83B00E
:100518000F460190186800F079F8264BD3F800A030
:100528004FF00009DAF848618EB17468651E0ED480
:10053800013406EB84044FF001087FB1D4F8003190
:10054800BB420BD0013D6B1CA4F10404F5D1184B40
:10055800186803B0BDE8F04F00F060B8736822680F
:10056800013BAB420CBF7560C4F80090002AE9D08B
:10057800D6F88811D6F804B008FA05FC1CEA010F71
:1005880008D1904772685A45CCD1DAF84831B3425D
:10059800D8D0C7E7D6F88C31D4F880101CEA030FFE
:1005A80002D101989047EDE708469047EAE700BF77
:1005B80048040020B0060008002301461A461846E1
:1005C80000F02EB838B50A4C0A4D641BA4100AD0A6
:1005D80004F18043013B05EB8305013C55F80439E0
:1005E8009847002CF9D1BDE8384000F067B800BF43
:1005F800E4060008E0060008704700BF704700BF27
:10060800704700BF704700BF704700BF704700BF0A
:100618000120704701207047704700BF704700BF36
:100628002DE9F0411E4C0546206890461F460E46AF
:10063800FFF7ECFF1B4B1A68D2F8483133B35A68FE
:1006480020681F2A27DC4DB9911C01325A6043F8F3
:100658002160FFF7E3FF0020BDE8F08103EB820192
:100668000124C1F8888004FA02FED3F88841022DDB
:1006780044EA0E0CC3F888C1C1F80871E4D1D3F874
:100688008C114EEA0104C3F88C41DDE702F5A6732C
:10069800C2F84831D3E7FFF7C1FF4FF0FF30DBE77F
:1006A80048040020B00600082000002000000000D8
:1006B800F8B500BFF8BC08BC9E467047F8B500BF47
:0806C800F8BC08BC9E46704717
:0806D000F8FAFF7F01000000B1
:0806D800FD040008AD0100085B
:0406E0008901000884
:1006E40000000000000000000000000001020304FC
:1006F40006070809007A030A200000200000000011
:10070400000000000C03002074030020DC03002020
:1007140000000000000000000000000000000000D5
:1007240000000000000000000000000000000000C5
:1007340000000000000000000000000000000000B5
:1007440000000000000000000000000000000000A5
:100754000000000000000000000000000000000095
:100764000000000000000000000000000000000085
:100774000000000000000000000000000000000075
:100784000000000000000000000000000000000065
:100794000000000000000000000000000000000055
:1007A4000000000000000000010000000000000044
:1007B4000E33CDAB34126DE6ECDE05000B00000009
:1007C4000000000000000000000000000000000025
:1007D4000000000000000000000000000000000015
:1007E4000000000000000000000000000000000005
:1007F40000000000000000000000000000000000F5
:0C0B240000000000000000006804002039
:04000005080003A943
:00000001FF
