:020000040800F2
:1000000000000220850E0008CD0E0008CD0E00086D
:10001000CD0E0008CD0E0008CD0E00080000000037
:10002000000000000000000000000000CD0E0008ED
:10003000CD0E000800000000CD0E0008CD0E000817
:10004000CD0E0008CD0E0008CD0E0008CD0E000824
:10005000CD0E0008CD0E0008CD0E0008CD0E000814
:10006000CD0E0008CD0E0008CD0E0008CD0E000804
:10007000CD0E0008CD0E0008CD0E0008CD0E0008F4
:10008000CD0E0008CD0E0008CD0E0008CD0E0008E4
:10009000CD0E0008CD0E0008CD0E0008CD0E0008D4
:1000A000CD0E0008CD0E0008CD0E0008CD0E0008C4
:1000B000CD0E0008CD0E0008CD0E0008CD0E0008B4
:1000C000CD0E0008CD0E0008CD0E0008CD0E0008A4
:1000D000CD0E0008CD0E0008CD0E0008CD0E000894
:1000E000CD0E0008CD0E0008CD0E0008CD0E000884
:1000F000CD0E0008CD0E0008CD0E0008CD0E000874
:10010000CD0E0008CD0E0008CD0E0008CD0E000863
:10011000CD0E0008CD0E0008CD0E0008CD0E000853
:10012000CD0E0008CD0E0008CD0E0008CD0E000843
:10013000CD0E0008CD0E0008CD0E0008CD0E000833
:10014000CD0E0008CD0E0008CD0E0008CD0E000823
:10015000CD0E0008CD0E0008CD0E0008CD0E000813
:10016000CD0E0008CD0E0008CD0E0008CD0E000803
:10017000CD0E0008CD0E0008CD0E0008CD0E0008F3
:08018000CD0E0008CD0E0008B1
:1001880010B5054C237833B9044B13B10448AFF3C9
:1001980000800123237010BD5C04002000000000D3
:1001A8009011000808B5034B1BB103490348AFF38E
:1001B800008008BD000000006004002090110008C5
:1001C800154B002B08BF134B9D46A3F5803A002121
:1001D8008B460F461348144A121A00F0A9FE0F4B1B
:1001E800002B00D098470E4B002B00D098470020DA
:1001F800002104000D000D48002802D00C4800F032
:1002080049FF00F071FE2000290000F01BFE00F0FD
:100218005BFE00BF000008000000000000000000B6
:10022800000000005C0400209C0400209D100008D1
:10023800A9100008344B35481A68002142F0010221
:100248001A6099601A6822F0847222F480321A6067
:1002580058601A6882B022F480221A60D96000912E
:1002680001911A6842F480321A6003E0009AB2F5EC
:10027800A06F09D01A6802F400320192009A013284
:100288000092019A002AF1D01F4B1B6813F4003327
:1002980018BF01230193019B012B05D01C4B4FF084
:1002A80000629A6002B07047174B1A491A6C1A48D4
:1002B80042F080521A640A6842F480420A609A68DE
:1002C8009A609A6842F400429A609A6842F4A0528E
:1002D8009A6058601A6842F080721A601A6892012F
:1002E800FCD50E4A084940F2056010609A6822F071
:1002F80003029A609A6842F002029A608B6803F0DF
:100308000C03082BFAD1C9E700380240103000244A
:1003180000ED00E00070004008544007003C024037
:10032800154A936803F00C03042B0BD0082B0BD051
:10033800124B114A12499268C2F303128A5CD340E5
:100348000B6170470F4BF4E75068516852684302DD
:10035800C2F3881201F03F014CBF0A4B074BB3FBB5
:10036800F1F303FB02F3044A5268C2F3014201327B
:100378005200B3FBF2F3DCE7003802400024F4003B
:100388000400002000127A000A4B0B481A6800216A
:1003980042F001021A6099601A6822F0847222F40D
:1003A80080321A6058601A6822F480221A60D96074
:1003B800704700BF0038024010300024024B002272
:1003C8001A701870704700BF0238024082B00023CC
:1003D8000A4A0193136813F4003F019B03F10103D8
:1003E8000193019B05D0054B1868C0F3404002B04B
:1003F8007047B3F5A06FEDD1F5E700BF00380240B4
:10040800034A136823F0F80343EAC00010607047FA
:1004180000380240014B1860704700BF0000474297
:10042800064B002201281A701A7005D0042802D140
:1004380005221A707047704718707047703802406C
:10044800014B1860704700BF800E474230B4029CD1
:10045800064D40EA04605B080843013B40EA82100D
:1004680040EA0340686030BC704700BF0038024073
:10047800014B1860704700BF600047420907034BF3
:1004880041EA8011C3F88410704700BF0038024069
:10049800014B1860704700BF68004742014B186065
:1004A800704700BF4C004742034A936823F0EC634F
:1004B800194301439160704700380240034A93682A
:1004C80023F0784319430143916070470038024094
:1004D800034A936823F0030318439060704700BFF2
:1004E80000380240024B986800F00C00704700BFCB
:1004F80000380240034A936823F0F00318439060E1
:10050800704700BF00380240034A936823F4E05361
:1005180018439060704700BF00380240034A936850
:1005280023F4604343EAC0009060704700380240FB
:100538001F4A936803F00C03042B10B41BD0082B3C
:100548001CD01C4B03601A4A1B499468C4F303145B
:100558000C5DE34043609468C4F382240C5D23FA85
:1005680004F4846092685DF8044BC2F342328A5CFA
:10057800D340C3607047114B0360E4E75468516887
:1005880052686302C2F3881201F03F014CBF0B4B63
:10059800084BB3FBF1F303FB02F3054A5268C2F3BD
:1005A800014201325200B3FBF2F30360CBE700BF14
:1005B800003802400024F4001800002000127A00DD
:1005C80000F44073B3F5407F09D108498A6820F0E8
:1005D800704322F4F81223F4407313438B60034BE7
:1005E8001A6FC0F30B0010431867704700380240B9
:1005F800014B1860704700BF3C0E4742014B186022
:10060800704700BF400E4742014B1860704700BF5B
:100618005C014742044A136B11B1034313637047EB
:1006280023EA00031363704700380240044A536BFF
:1006380011B103435363704723EA000353637047C0
:1006480000380240044A936B11B103439363704727
:1006580023EA00039363704700380240044A136C8E
:1006680011B103431364704723EA0003136470470E
:1006780000380240044A536C11B103435364704775
:1006880023EA00035364704700380240044A1369A0
:1006980011B103431361704723EA000313617047E4
:1006A80000380240044A536911B10343536170474B
:1006B80023EA00035361704700380240044A9369F3
:1006C80011B103439361704723EA000393617047B4
:1006D80000380240044A136A11B103431362704799
:1006E80023EA00031362704700380240044A536A41
:1006F80011B103435362704723EA00035362704702
:1007080000380240044A136D11B103431365704762
:1007180023EA00031365704700380240044A536D0A
:1007280011B103435365704723EA000353657047CB
:1007380000380240044A936D11B103439365704732
:1007480023EA00039365704700380240044A136E99
:1007580011B103431366704723EA00031366704719
:1007680000380240044A536E11B103435366704780
:1007780023EA00035366704700380240044A13789E
:1007880011B103431370704723EA000313707047D5
:100798000D3802404309012B0BD0022B094B0CBF2B
:1007A8001B6F5B6F00F01F0023FA00F000F00100E0
:1007B8007047044B1B6800F01F0023FA00F000F09C
:1007C8000100704700380240024A536F43F08073BB
:1007D8005367704700380240034BDB68184214BF68
:1007E80001200020704700BF00380240014B1870FC
:1007F800704700BF0E38024008B53C4B984222D0E3
:100808003B4B984229D03B4B984230D03A4B9842C8
:100818000FD03A4B984234D0394B98423BD0394BA1
:10082800984242D0384B984255D0384B984246D0DF
:1008380008BD01210820FFF729FF00210820BDE895
:100848000840FFF723BF01210846FFF71FFF0021DB
:100858000120BDE80840FFF719BF01210220FFF77A
:1008680015FF00210220BDE80840FFF70FBF012156
:100878000420FFF70BFF00210420BDE80840FFF724
:1008880005BF01211020FFF701FF00211020BDE85E
:100898000840FFF7FBBE01212020FFF7F7FE0021EB
:1008A8002020BDE80840FFF7F1BE01214020FFF7F6
:1008B800EDFE00214020BDE80840FFF7E7BE01211A
:1008C8004FF48070FFF7E2FE00214FF48070BDE81E
:1008D8000840FFF7DBBE01218020FFF7D7FE00218B
:1008E8008020BDE80840FFF7D1BE00BF00000240ED
:1008F8000004024000080240000C024000100240C0
:100908000014024000180240001C0240002002406F
:100918002DE9F047D1F800C0002301274FF0030E5E
:1009280002E00133102B3FD007FA03F232EA0C043D
:10093800F7D15C00D0F800800E790EFA04F5ED438B
:1009480008EA0508C0F80080D0F800A006FA04F903
:10095800013E49EA0A09012E0EFA04F8C0F800908F
:1009680016D8D0F808904E7905EA09058560D0F8C0
:1009780008908D79A64046EA09068660466826EA08
:1009880002024260466805FA03F292B232434260BC
:10099800C568CA7925EA0805C560C568A24001335B
:1009A8002A43102BC260BFD1BDE8F0874FF6FF7213
:1009B8000023C0E90023704782B04FF480330193CD
:1009C800019B0B430193019BC361C161019BC361FF
:1009D800C3690193C369019302B07047036919425F
:1009E80014BF012000207047006980B2704700BF23
:1009F8004369194214BF012000207047406980B242
:100A0800704700BF01837047418370470AB1018373
:100A180070474183704700BF41617047436959403F
:100A280041617047CB0800EB830001F0070110B467
:100A3800036A89000F248C4023EA04030362036AD3
:100A48005DF8044B02FA01F119430162704700BFD7
:100A580008B52B4B98421BD02A4B984222D02A4BE0
:100A680098422BD0294B984206D0294B984231D036
:100A7800284B98423AD008BD01214FF40020FFF7D7
:100A880029FE00214FF40020BDE80840FFF722BEF0
:100A980001211020FFF72AFE00211020BDE80840A0
:100AA800FFF724BE01214FF40030FFF713FE0021A9
:100AB8004FF40030BDE80840FFF70CBE01214FF4A9
:100AC8008020FFF707FE00214FF48020BDE8084092
:100AD800FFF700BE01214FF48010FFF7FBFD002156
:100AE8004FF48010BDE80840FFF7F4BD0121202035
:100AF800FFF7FCFD00212020BDE80840FFF7F6BD08
:100B0800001001400044004000480040004C0040F4
:100B18000050004000140140028AF0B592B2044629
:100B2800C8880D4622F4405202438989AB882F8930
:100B38002282A6896889244A3B43324003431343EF
:100B4800A381A38A9BB223F440730B4385B0A3828D
:100B58006846FFF7EDFC1D4B9C4205D003F580630A
:100B68009C4201D0029A00E0039AA3892868184D94
:100B7800190402EB820202EB82024CBF40008000A3
:100B8800B2FBF0F0A289A5FB0031490964231204E5
:100B980003FB11034FEA01110AD41B013233A5FBF1
:100BA8000323C3F343130B439BB2238105B0F0BD6A
:100BB800DA003232A5FB0232C2F3421242EA0103E2
:100BC8009BB2238105B0F0BDF3E9FFFF001001409F
:100BD8001F85EB5100234FF416514FF4402201605A
:100BE800C0E901328381704730B40B884D888C8806
:100BF800028AC9882B43234392B20B4322F47062C2
:100C08001343038230BC70470023038043808380F2
:100C1800C3807047838919B143F4005383817047B7
:100C280023F400531B041B0C83817047038B03F4CC
:100C38007F430383038B194301837047838919B169
:100C480043F4004383817047C3F30E0383817047E5
:100C5800838A19B143F400638382704723F40063E5
:100C68001B041B0C83827047C1F308018180704705
:100C78008088C0F308007047038A23F00F031B0421
:100C88001B0C0382038A194301827047838919B1B7
:100C980043F002038381704723F002031B041B0CFB
:100CA80083817047838923F400631B041B0C8381B1
:100CB8008389194381817047038A23F020031B0429
:100CC8001B0C0382038A194301827047038A19B1F6
:100CD80043F480430382704723F480431B041B0CB6
:100CE80003827047838943F001038381704700BF03
:100CF800838A19B143F008038382704723F00803FD
:100D08001B041B0C83827047038BDBB20383038BAA
:100D180043EA012101837047838A19B143F0200314
:100D28008382704723F020031B041B0C83827047C7
:100D3800838A19B143F010038382704723F01003AC
:100D48001B041B0C83827047838A23F004031B0453
:100D58001B0C8382838A194381827047838A19B165
:100D680043F002038382704723F002031B041B0C29
:100D780083827047838A12B119438182704723EABC
:100D880001018182704700BF10B401F01F04C1F354
:100D980042110123012903FA04F311D002290CBFDF
:100DA800103014302AB102685DF8044B1343036015
:100DB800704702685DF8044B22EA0303036070473A
:100DC8000C30EFE70388194214BF01200020704758
:100DD800C94389B201807047C1F3421210B401239C
:100DE80001F01F04012A03FA04F316D0022A0CBFEB
:100DF800028A828A1340028892B253B10123090AF7
:100E080003FA01F10A4214BF184600205DF8044BAA
:100E1800704718465DF8044B704782891340EAE72B
:100E2800090A012303FA01F1C94389B20180704715
:100E3800C0110008000000205C0400205C040020B1
:100E48009C04002000B5012183B04FF48040FFF7D7
:100E580035FC2024012369460748CDE90043FFF704
:100E680057FD054821460446FFF7CEFD20212046C0
:100E7800FFF7C8FDFAE700BF00000240002103E0C9
:100E88000B4B5B58435004310A480B4B42189A42AB
:100E9800F6D30A4A02E0002342F8043B084B9A4280
:100EA800F9D3FFF7C7F900F01FF8FFF7CBFF70473A
:100EB800C0110008000000205C0400205C04002031
:100EC8009C040020FEE7000008B50021044600F05D
:100ED80089F8044B1868C36B03B19847204600F0A3
:100EE80061F900BF8C11000870B50D4E0D4D761BD1
:100EF800B61006D00024013455F8043B9847A642A2
:100F0800F9D1094E094D761B00F040F9B61006D00C
:100F18000024013455F8043B9847A642F9D170BD26
:100F2800B4110008B4110008BC110008B41100087D
:100F3800F0B4860746D0541E002A3CD0CAB20346F5
:100F480002E014F1FF3436D303F8012B9D07F8D1E2
:100F5800032C29D9CDB245EA05250F2C45EA0545CC
:100F680033D9A4F11006360903F1200707EB061759
:100F780003F1100242E9045542E902551032BA421F
:100F8800F8D1721C14F00C0F03EB021204F00F06D8
:100F980013D0331F23F003030433134442F8045BD4
:100FA8009342FBD106F003042CB1C9B21C4403F8E8
:100FB800011B9C42FBD1F0BC704734461346002C01
:100FC800F3D1F8E714460346C2E71A462646E0E797
:100FD800024B13B1024800F05DB8704700000000F2
:100FE800A91000082DE9F04F284B83B00F46019057
:100FF800186800F079F8264BD3F800A04FF00009E4
:10100800DAF848618EB17468651E0ED4013406EBB7
:1010180084044FF001087FB1D4F80031BB420BD0F3
:10102800013D6B1CA4F10404F5D1184B186803B0FA
:10103800BDE8F04F00F060B873682268013BAB422E
:101048000CBF7560C4F80090002AE9D0D6F8881162
:10105800D6F804B008FA05FC1CEA010F08D190473D
:1010680072685A45CCD1DAF84831B342D8D0C7E7CC
:10107800D6F88C31D4F880101CEA030F02D10198FD
:101088009047EDE708469047EAE700BF580400207C
:101098008C110008002301461A46184600F02EB8A5
:1010A80038B50A4C0A4D641BA4100AD004F18043D9
:1010B800013B05EB8305013C55F804399847002CA2
:1010C800F9D1BDE8384000F067B800BFC01100088A
:1010D800BC110008704700BF704700BF704700BFD1
:1010E800704700BF704700BF704700BF01207047BE
:1010F80001207047704700BF704700BF2DE9F041DD
:101108001E4C0546206890461F460E46FFF7ECFF2A
:101118001B4B1A68D2F8483133B35A6820681F2A23
:1011280027DC4DB9911C01325A6043F82160FFF762
:10113800E3FF0020BDE8F08103EB82010124C1F840
:10114800888004FA02FED3F88841022D44EA0E0C86
:10115800C3F888C1C1F80871E4D1D3F88C114EEAFC
:101168000104C3F88C41DDE702F5A673C2F84831E3
:10117800D3E7FFF7C1FF4FF0FF30DBE7580400204B
:101188008C1100083000002000000000F8B500BFF6
:10119800F8BC08BC9E467047F8B500BFF8BC08BC50
:0411A8009E467047A8
:0811AC001CF0FF7F01000000B0
:0811B400D90F0008AD0100088D
:0411BC00890100089D
:1011C0000000000000000000000000000102030415
:1011D00006070809007A030A000000000102030460
:1011E0000102030406070809300000200000000087
:1011F000000000001C03002084030020EC030020FA
:1012000000000000000000000000000000000000DE
:1012100000000000000000000000000000000000CE
:1012200000000000000000000000000000000000BE
:1012300000000000000000000000000000000000AE
:10124000000000000000000000000000000000009E
:10125000000000000000000000000000000000008E
:10126000000000000000000000000000000000007E
:10127000000000000000000000000000000000006E
:10128000000000000000000000000000000000005E
:10129000000000000000000001000000000000004D
:1012A0000E33CDAB34126DE6ECDE05000B00000012
:1012B000000000000000000000000000000000002E
:1012C000000000000000000000000000000000001E
:1012D000000000000000000000000000000000000E
:1012E00000000000000000000000000000000000FE
:0C16100000000000000000007804002032
:0400000508000E855C
:00000001FF
