:020000040800F2
:10000000008001207D140008910600089306000876
:1000100095060008970600089906000800000000F1
:100020000000000000000000000000009B06000827
:100030009D060008000000009F060008A1060008B9
:10004000CD140008CD140008CD140008CD1400080C
:10005000CD140008CD140008CD140008CD140008FC
:10006000CD140008CD140008CD140008CD140008EC
:10007000CD140008CD140008CD140008CD140008DC
:10008000CD140008CD140008CD14000800000000B5
:10009000000000000000000000000000CD14000877
:1000A000CD140008CD140008CD140008CD140008AC
:1000B000CD140008CD140008CD140008CD1400089C
:1000C000CD140008CD140008CD140008CD1400088C
:1000D000CD140008CD140008CD1400080000000065
:1000E000CD140008CD140008CD1400080000000055
:1000F000000000000000000000000000CD14000817
:1001000000000000CD140008CD140008CD14000834
:1001100000000000000000000000000000000000DF
:10012000CD140008CD140008CD140008CD1400082B
:10013000CD140008000000000000000000000000D6
:10014000000000000000000000000000CD140008C6
:10015000CD140008CD140008CD140008CD140008FB
:10016000CD140008CD1400080000000000000000BD
:10017000000000000000000000000000000000007F
:1001800000000000CD140008000000000000000086
:04019000CD14000882
:1001940010B5054C237833B9044B13B10448AFF3BD
:1001A40000800123237010BD7000002000000000B7
:1001B4002C1F000808B5034B1BB103490348AFF3D8
:1001C400008008BD00000000740000202C1F0008FF
:1001D40053B94AB9002908BF00281CBF4FF0FF31AA
:1001E4004FF0FF3000F074B9ADF1080C6DE904CEA6
:1001F40000F006F8DDF804E0DDE9022304B07047FE
:100204002DE9F047089E04468846002B40F085807F
:100214008A42154648D9B2FA82F24AB1C2F120079D
:1002240001FA02F320FA07F7954047EA03089440DD
:100234004FEA154E230CB8FBFEF71FFA85FC0EFBA4
:10024400178843EA084307FB0CF1994209D9EB18D4
:1002540007F1FF3080F0E380994240F2E080023FF2
:100264002B445B1AA4B2B3FBFEF00EFB103344EA3A
:10027400034400FB0CFCA44509D92C1900F1FF33FD
:1002840080F0CB80A44540F2C88002382C4440EA78
:100294000740A4EB0C0400271EB1D4400023C6E998
:1002A40000433946BDE8F087002A53D0B2FA82F2FF
:1002B400002A40F0B680491B4FEA154E1FFA85F814
:1002C4000127B1FBFEFC230C0EFB1C1143EA014386
:1002D40008FB0CF1994207D9EB180CF1FF3002D25C
:1002E400994200F2EC808446591AA3B2B1FBFEF0A5
:1002F4000EFB101443EA044408FB00F8A04507D998
:100304002C1900F1FF3302D2A04500F2DC8018461C
:10031400A4EB080440EA0C40BEE78B4208D9002E47
:1003240078D00027C6E9000138463946BDE8F08791
:10033400B3FA83F77FB98B4202D3824200F2BD80C5
:10034400841A61EB030301209846002EA9D0C6E964
:100354000048A6E7FFDEC7F12005BB4022FA05FCF2
:100364004CEA030C01FA07F420FA05F821FA05F324
:100374004FEA1C4E48EA0404B3FBFEF9210C0EFBC1
:1003840019331FFA8CF841EA034309FB08FA9A452A
:1003940002FA07F200FA07F10BD91CEB030309F187
:1003A400FF3080F088809A4540F28580A9F10209E7
:1003B4006344A3EB0A03A4B2B3FBFEF00EFB1033B9
:1003C40044EA034400FB08F8A04508D91CEB0404E4
:1003D40000F1FF336BD2A04569D90238644440EA86
:1003E4000940A4EB0804A0FB02894C45C6464B46D1
:1003F40054D351D0002E69D0B1EB0E0264EB030448
:1004040004FA05F522FA07F3FC401D43C6E900543B
:10041400002746E73746304643E7184637E707469E
:100424001FE7C2F1200320FA03F7954001FA02F016
:1004340021FA03F34FEA154E3843010CB3FBFEF7E0
:100444001FFA85F80EFB173341EA034107FB08F353
:100454008B4204FA02F407D9691807F1FF3C28D249
:100464008B4226D9023F2944CB1A81B2B3FBFEF05A
:100474000EFB103341EA034100FB08F38B4207D91A
:10048400691800F1FF3C10D28B420ED9023829447E
:10049400C91A40EA074714E74145ABD2B8EB020E4C
:1004A40069EB0C0201381346A4E76046F0E71846EE
:1004B40095E76746D8E781467BE7384645E7ACF1E0
:1004C400020C2B4410E702382C4421E73746E8E6B7
:1004D400704700BF30B58BB0002405940694079490
:1004E400089409940194224B1A6B42F004021A6393
:1004F4001A6B02F004020192019A02941A6B42F000
:1005040080021A631A6B02F080020292029A039428
:100514001A6B42F001021A631A6B02F00102039291
:10052400039A04941A6B42F002021A631B6B03F0E1
:1005340002030493049B0F4D22462021284600F019
:10054400E3FC4FF4005305930B4B0693079405A962
:100554000A4800F007FC202305930123069307941F
:10056400089405A9284600F0FDFB0BB030BD00BF80
:100574000038024000000240000021100008024040
:1005840008B50848084B03604FF4E1334360002387
:100594008360C36003610C2242618361C36100F024
:1005A40015FF08BD980000200044004030B595B008
:1005B4003022002108A800F0ADFF00240394049425
:1005C40005940694079401941B4B1A6C42F08052D4
:1005D4001A641B6C03F080530193019B0294174A25
:1005E400136823F4404343F400431360136803F493
:1005F40040430293029B0225089501230B93102389
:100604000C930E950F9410934FF4A8731193042335
:1006140012930723139308A800F09AF80F23039367
:10062400049505944FF4805306930794294603A830
:1006340000F0C4FA15B030BD00380240007000402C
:1006440008B500F0E9FCFFF7B1FFFFF743FFFFF740
:1006540097FF0C4C01222021204600F055FC642019
:1006640000F006FD00222021204600F04DFC64200D
:1006740000F0FEFC044800F0C3FF4FF47A7000F071
:10068400F7FCE6E700000240441F00087047FEE75D
:10069400FEE7FEE7FEE770477047704708B500F0D5
:1006A400D5FC08BD00B583B0002100910C4B5A6CF9
:1006B40042F480425A645A6C02F480420092009AD6
:1006C40001911A6C42F080521A641B6C03F080533F
:1006D4000193019B072000F01DFC03B05DF804FBAF
:1006E4000038024000B589B00023039304930593B6
:1006F400069307930268144B9A4202D009B05DF83E
:1007040004FB0021019103F5FA331A6C42F4003220
:100714001A641A6C02F400320192019A02911A6B63
:1007240042F001021A631B6B03F001030293029B64
:100734000C230393022304930723079303A9034879
:1007440000F010FBDAE700BF004400400000024064
:10075400002800F0B98170B582B00446036813F034
:10076400010F3BD0A64B9B6803F00C03042B2CD049
:10077400A34B9B6803F00C03082B21D06368B3F5EB
:10078400803F4FD0B3F5A02F52D09D4B1A6822F46E
:1007940080321A601A6822F480221A606368002B7F
:1007A40050D000F05FFC0546954B1B6813F4003FE6
:1007B40014D100F057FC401B6428F5D903208AE1CA
:1007C4008F4B5B6813F4800FD8D08D4B1B6813F4E8
:1007D400003F03D06368002B00F07881236813F096
:1007E400020F54D0864B9B6813F00C0F3ED0844B01
:1007F4009B6803F00C03082B33D0E368002B67D00D
:10080400804B01221A6000F02DFC05467C4B1B68CE
:1008140013F0020F53D100F025FC401B0228F5D938
:10082400032058E1764A136843F480331360B5E734
:10083400734B1A6842F480221A601A6842F48032B8
:100844001A60ABE700F00EFC05466D4B1B6813F411
:10085400003FC3D000F006FC401B6428F5D90320F8
:1008640039E1674B5B6813F4800FC6D1644B1B6896
:1008740013F0020F03D0E368012B40F02981604A92
:10088400136823F0F803216943EAC1031360236862
:1008940013F0080F40D0636963B35B4B01221A6005
:1008A40000F0E0FB0546564B5B6F13F0020F33D1AB
:1008B40000F0D8FB401B0228F5D903200BE1504A75
:1008C400136823F0F803216943EAC1031360DEE7E8
:1008D4004C4B00221A6000F0C5FB0546484B1B68D0
:1008E40013F0020FD3D000F0BDFB401B0228F5D952
:1008F4000320F0E0444B00221A6000F0B3FB0546ED
:100904003F4B5B6F13F0020F06D000F0ABFB401BB4
:100914000228F5D90320DEE0236813F0040F78D011
:10092400374B1B6C13F0805F33D100230193344B9E
:100934001A6C42F080521A641B6C03F080530193CA
:10094400019B0125314B1B6813F4807F23D0A368DE
:10095400012B34D0052B38D0294B1A6F22F0010219
:100964001A671A6F22F004021A67A368002B36D0A4
:1009740000F078FB0646224B1B6F13F0020F47D1A1
:1009840000F070FB801B41F288339842F3D90320B6
:10099400A1E00025D6E71D4A136843F48073136071
:1009A40000F060FB0646194B1B6813F4807FCED120
:1009B40000F058FB801B0228F5D903208BE0104A75
:1009C400136F43F001031367CFE70D4B1A6F42F027
:1009D40004021A671A6F42F001021A67C5E700F0B1
:1009E40041FB0646064B1B6F13F0020F10D000F0BC
:1009F40039FB801B41F288339842F3D903206AE023
:100A04000038024000004742800E47420070004018
:100A1400E5B9A369002B5DD0314A926802F00C025B
:100A2400082A5AD0022B17D02E4B00221A6000F04D
:100A340019FB04462A4B1B6813F0007F42D000F0D8
:100A440011FB001B0228F5D9032044E0244A136C4F
:100A540023F080531364DCE7224B00221A6000F079
:100A640001FB05461E4B1B6813F0007F06D000F007
:100A7400F9FA401B0228F5D903202CE0E369226A25
:100A84001343626A43EA8213A26A5208013A43EAB0
:100A94000243E26A43EA0263114A5360114B0122A2
:100AA4001A6000F0DFFA04460D4B1B6813F0007F58
:100AB40006D100F0D7FA001B0228F5D903200AE07A
:100AC400002008E0002006E001207047012002E039
:100AD400012000E0002002B070BD0120FBE700BF50
:100AE4000038024060004742314B9B6803F00C031E
:100AF400042B58D0082B58D170B52D4B5A6802F0EE
:100B04003F025B6813F4800F2AD0294B5868C0F366
:100B140088100546002643011B1A66EB0604A10152
:100B240041EA93619801C01A61EB0401CB0043EAE6
:100B34005073C4001946601946EB01014B0243EAA5
:100B4400D0534402204619463346FFF741FB184B65
:100B54005B68C3F3014301335B00B0FBF3F070BD8A
:100B6400134B5868C0F388100546002643011B1A2E
:100B740066EB0604A10141EA93619801C01A61EB96
:100B84000401CB0043EA5073C4001946601946EBD4
:100B940001018B0243EA90538402204619463346EE
:100BA400FFF716FBD3E7034870470348704700BFBD
:100BB4000038024000127A000024F400002800F0FB
:100BC4009A8070B50446504B1B6803F00F038B42A8
:100BD40008D2CBB24C4A1370136803F00F038B4254
:100BE40040F08B80236813F0020F17D013F0040F2A
:100BF40004D0464A936843F4E0539360236813F0A7
:100C0400080F04D0414A936843F4604393603F4A19
:100C1400936823F0F003A068034393600D462368B0
:100C240013F0010F32D06368012B21D09A1E012AE0
:100C340025D9364A126812F0020F60D033498A6807
:100C440022F0030213438B6000F00CFA06462F4B8C
:100C54009B6803F00C036268B3EB820F16D000F0BC
:100C640001FA801B41F288339842F0D9032041E015
:100C7400264A126812F4003FE0D101203AE0234AE8
:100C8400126812F0007FD9D1012033E01E4B1B689B
:100C940003F00F03AB4207D9EAB21B4B1A701B686F
:100CA40003F00F03AB422CD1236813F0040F06D0DA
:100CB400164A936823F4E053E1680B439360236876
:100CC40013F0080F07D0114A936823F46043216995
:100CD40043EAC1039360FFF707FF0C4B9B68C3F320
:100CE40003130B4AD35CD8400A4B1860002000F071
:100CF4006DF9002070BD012070470120FAE7012042
:100D0400F8E70120F6E700BF003C0240003802404B
:100D1400541F000808000020014B1868704700BFEA
:100D24000800002008B5FFF7F7FF044B9B68C3F3E6
:100D34008223034AD35CD84008BD00BF0038024078
:100D4400641F000808B5FFF7E7FF044B9B68C3F373
:100D54004233034AD35CD84008BD00BF0038024088
:100D6400641F000800230F2B00F2C480F0B482B08B
:100D740039E0042200E00022B2403A4302355E4EDC
:100D840046F825205D4A1568E24302EA05064F68E5
:100D940017F4803F01D044EA0506584D2E606D6873
:100DA40002EA05064F6817F4003F01D044EA05063D
:100DB400524D6E60AD6802EA05064F6817F4801F55
:100DC40001D044EA05064D4DAE60ED682A404E68F8
:100DD40016F4001F01D044EA0502484CE2600133D6
:100DE4000F2B00F2848001229A400C681440A24226
:100DF400F5D14D68022D01D0122D10D1DE08083630
:100E040050F826C003F00705AF000F25BD402CEABB
:100E1400050C0D69BD4045EA0C0540F826500668EE
:100E24005F000325BD40ED4305EA060C4E6806F05D
:100E34000306BE4046EA0C0606604E6806F1FF3C17
:100E4400BCF1010F03D9112E01D0122E10D18668E6
:100E540005EA060CCE68BE4046EA0C068660466883
:100E640026EA02024E68C6F300169E401643466008
:100E7400C26815408A68BA402A43C2604A6812F0C0
:100E8400805FACD0002201921D4A556C45F4804528
:100E94005564526C02F480420192019A9D08AE1C82
:100EA400154A52F8267003F0030296000F22B2404E
:100EB40027EA0207134A90423FF45DAF02F58062CD
:100EC40090420ED002F5806290420CD002F580620E
:100ED40090420AD002F5806290423FF44AAF072262
:100EE4004AE7012248E7022246E7032244E702B028
:100EF400F0BC7047704700BF00380140003C01401F
:100F040000380240000002400AB1816170470904C0
:100F140081617047074AD36823F4E0631B041B0C08
:100F2400000200F4E060184340F0BF6040F4003079
:100F3400D060704700ED00E030B4174BDB68C3F3BA
:100F44000223C3F10704042C28BF04241D1D062D0D
:100F540001D9033B00E000234FF0FF3505FA04F408
:100F640021EA0401994005FA03F322EA0303194331
:100F7400002809DB0901C9B200F1604000F56140B5
:100F840080F8001330BC704700F00F000901C9B2AB
:100F9400024B1954F6E700BF00ED00E014ED00E049
:100FA4000138B0F1807F0AD2064B5860064AF0211E
:100FB40082F823100020986007221A6070470120ED
:100FC400704700BF10E000E000ED00E010B50446FB
:100FD4000E4B18784FF47A73B3FBF0F30C4A106895
:100FE400B0FBF3F0FFF7DCFF68B90F2C01D9012047
:100FF4000AE0002221464FF0FF30FFF79DFF054B2A
:101004001C60002000E0012010BD00BF0000002093
:10101400080000200400002008B50B4B1A6842F4B5
:1010240000721A601A6842F480621A601A6842F404
:1010340080721A600320FFF76DFF0020FFF7C6FFE0
:10104400FFF730FB002008BD003C0240034A116852
:10105400034B1B780B441360704700BFD80000207B
:1010640000000020014B1868704700BFD800002022
:1010740038B50446FFF7F6FF0546B4F1FF3F02D04A
:10108400044B1B781C44FFF7EDFF401BA042FAD32E
:1010940038BD00BF000000202DE9F8430446026873
:1010A400136923F44053C1680B43136183680269D5
:1010B400134342691343C2691A430168CB6823F49A
:1010C400164323F00C031343CB600268536923F4E3
:1010D400407381690B435361C369B3F5004F60D01A
:1010E4000368B84A934200F0148102F58062934287
:1010F40000F00F81FFF716FE00EB800000EB80008C
:101104006568AD00B0FBF5F5AF4FA7FB05356D097C
:101114002E01FFF707FE00EB800000EB80006568FE
:10112400AD00B0FBF5F9FFF7FDFD00EB800000EB2F
:1011340080006568AD00B0FBF5F5A7FB05356D09CA
:101144004FF0640808FB15952D013235A7FB0535D2
:101154006D0905F0F0053544FFF7E4FD00EB800070
:1011640000EB80006668B600B0FBF6F6FFF7DAFD28
:1011740000EB800000EB800063689B00B0FBF3F0A1
:10118400A7FB0030400908FB10684FEA081808F173
:101194003208A7FB0837C7F3431723682F449F601F
:1011A4000DE10368874A93425BD002F58062934263
:1011B40057D0FFF7B7FD00EB800000EB80006568B7
:1011C4006D00B0FBF5F5804FA7FB05356D092E01C9
:1011D400FFF7A8FD00EB800000EB800065686D0060
:1011E400B0FBF5F9FFF79EFD00EB800000EB8000FB
:1011F40065686D00B0FBF5F5A7FB05356D094FF08B
:10120400640808FB1595ED003235A7FB05356D091B
:101214006D0005F4F8753544FFF784FD00EB80009C
:1012240000EB800066687600B0FBF6F6FFF77AFD07
:1012340000EB800000EB800063685B00B0FBF3F31D
:10124400A7FB03235B0908FB13684FEAC80808F1EE
:101254003208A7FB0837C7F3421723682F449F605F
:10126400ADE0FFF76FFD00EB800000EB80006568E8
:101274006D00B0FBF5F5544FA7FB05356D092E0144
:10128400FFF760FD00EB800000EB800065686D00F7
:10129400B0FBF5F9FFF756FD00EB800000EB800092
:1012A40065686D00B0FBF5F5A7FB05356D094FF0DA
:1012B400640808FB1595ED003235A7FB05356D096B
:1012C4006D0005F4F8753544FFF73CFD00EB800034
:1012D40000EB800066687600B0FBF6F6FFF732FD9F
:1012E40000EB800000EB800063685B00B0FBF3F36D
:1012F400A7FB03235B0908FB13684FEAC80808F13E
:101304003208A7FB0837C7F3421723682F449F60AE
:1013140055E0FFF717FD00EB800000EB80006568E7
:10132400AD00B0FBF5F5284FA7FB05356D092E017F
:10133400FFF708FD00EB800000EB80006568AD005E
:10134400B0FBF5F9FFF7FEFC00EB800000EB80003A
:101354006568AD00B0FBF5F5A7FB05356D094FF0E9
:10136400640808FB15952D013235A7FB05356D0979
:1013740005F0F0053544FFF7E5FC00EB800000EBD9
:1013840080006668B600B0FBF6F6FFF7DBFC00EB06
:10139400800000EB800063689B00B0FBF3F0A7FBC8
:1013A4000030400908FB10684FEA081808F13208B9
:1013B400A7FB0837C7F3431723682F449F60BDE892
:1013C400F88300BF001001401F85EB5158B310B5DE
:1013D400044690F839300BB3242384F8393022685A
:1013E400D36823F40053D3602046FFF755FE2268E8
:1013F400136923F4904313612268536923F02A0389
:1014040053612268D36843F40053D3600020E0633F
:10141400202384F8393084F83A3010BD80F838300D
:10142400FFF760F9D8E70120704700000F49D1F8B1
:10143400883043F47003C1F888300D4B1A6842F0C9
:1014440001021A60002098601A6822F0847222F463
:1014540080321A60074A5A601A6822F480221A609D
:10146400D8604FF000638B60704700BF00ED00E070
:101474000038024010300024DFF834D0002103E0AB
:101484000C4B5B58435004310B480C4B42189A42A6
:10149400F6D30B4A02E0002342F8043B094B9A427C
:1014A400F9D3FFF7C3FF00F011F8FFF7C9F870474D
:1014B40000800120E01F00080000002070000020D0
:1014C40070000020EC000020FEE7000070B50D4D18
:1014D4000D4C641BA4100026A64209D10B4D0C4CE4
:1014E40000F022FD641BA4100026A64205D170BDA5
:1014F40055F8043B98470136EEE755F8043B984706
:101504000136F2E7D81F0008D81F0008D81F0008CA
:10151400DC1F000802440346934200D1704703F8DD
:10152400011BF9E770B50E46054618B183690BB97E
:1015340000F048FAAB69AC6813B9284600F042FAE7
:101544002C4B9C4220D16C68636EDB0705D4A389C5
:10155400980502D4A06D00F0D2FAA38919071DD50D
:101564002369DBB1013EA36816F8011F013BA360A8
:1015740039BB002B38DA22460A21284600F048F805
:10158400013011D00A2511E01B4B9C4201D1AC68FB
:10159400DAE71A4B9C4208BFEC68D5E72146284697
:1015A40000F088F80028DDD04FF0FF35636EDA07CD
:1015B40005D4A3899B0502D4A06D00F0A1FA2846A6
:1015C40070BD002B04DAA2699A4206DC0A2904D011
:1015D40023685A1C22601970C5E72246284600F089
:1015E40017F80130BFD1DFE723680A255A1C2260AF
:1015F4001D70DBE7901F0008B01F0008701F000873
:10160400024B01461868FFF78DBF00BF0C00002095
:10161400F8B50E461446054618B183690BB900F0B7
:10162400D1F9214B9C422BD16C68A369A360A38997
:101634001A072FD523696BB323692068C01A63691D
:10164400F6B28342374604DC2146284600F026F9E8
:1016540030BBA368013BA36023685A1C22601E7040
:1016640063690130834204D0A389DB0706D50A2EBF
:1016740004D12146284600F011F988B93846F8BD4E
:101684000A4B9C4201D1AC68CFE7094B9C4208BF8E
:10169400EC68CAE72146284600F00CF80028CBD0B5
:1016A4004FF0FF37EAE700BF901F0008B01F0008A3
:1016B400701F0008324B70B51D6806460C4625B1F4
:1016C400AB6913B9284600F07DF92E4B9C420FD12B
:1016D4006C68B4F90C309AB215072CD4D00611D426
:1016E4000922326043F04003A3814FF0FF303EE013
:1016F400254B9C4201D1AC68EBE7244B9C4208BFCC
:10170400EC68E6E7510712D5616B41B104F144037B
:10171400994202D0304600F059FA00236363A3894A
:1017240023F02403A3810023636023692360A38936
:1017340043F00803A38123694BB9A38903F42073FD
:10174400B3F5007F03D02146304600F0FFF9A289AB
:1017540012F001030CD00023A36063695B42A36110
:10176400236953B9B4F90C3013F08000BAD170BDB9
:10177400920758BF6369A360F2E70020F7E700BF50
:101784000C000020901F0008B01F0008701F000804
:101794008A892DE9F041054610070C4658D44B6858
:1017A400002B05DC0B6C002B02DC0020BDE8F08173
:1017B400E66A002EF9D0002312F480522F682B60C1
:1017C40032D0606DA3895A0705D56368C01A636B6C
:1017D4000BB1236CC01A00230246E66A216A28462C
:1017E400B047431CA38906D129681D292CD82A4A4D
:1017F400CA40D60728D500226260D9042269226033
:1018040004D5421C01D12B6803B96065616B2F605C
:101814000029CAD004F14403994202D0284600F0BA
:10182400D5F900206063C1E7216A01232846B04747
:10183400411CC7D12B68002BC4D01D2B01D0162B03
:1018440001D12F60B1E7A38943F04003A381ADE741
:101854000F69002FA9D093070E6808BF4B690F606A
:1018640018BF0023A6EB07088B60B8F1000F9CDDBE
:1018740043463A46216AA66A2846B047002806DC51
:10188400A38943F04003A3814FF0FF308EE7074460
:10189400A8EB0008E9E700BF0100402038B50B6958
:1018A40005460C4613B90025284638BD18B183698E
:1018B4000BB900F087F8144B9C421BD16C68B4F947
:1018C4000C30002BEFD0626ED00704D4990502D4FB
:1018D400A06D00F014F928462146FFF759FF636E06
:1018E400DA070546E0D4A3899B05DDD4A06D00F09A
:1018F40007F9D9E7054B9C4201D1AC68DFE7044BFB
:101904009C4208BFEC68DAE7901F0008B01F00088B
:10191400701F0008002310B50446C0E9003383603B
:1019240081814366C281C0E9043383611946082278
:101934005C30FFF7EFFD054B6362054BA362054B7B
:10194400E362054B2462236310BD00BF411D000800
:10195400631D00089B1D0008BF1D0008014900F01D
:10196400AFB800BFA118000870B54A1E68255543DA
:101974000E4605F1740100F077F9044640B10021E8
:10198400C0E900160C30A06005F16802FFF7C2FD43
:10199400204670BD014800F0B2B800BFE40000204A
:1019A400014800F0ADB800BFE4000020014800F099
:1019B400A6B800BFDF000020014800F0A1B800BFB6
:1019C400DF00002010B50446FFF7F0FFA3691BB148
:1019D400BDE81040FFF7F0BFC4E912332365134B91
:1019E400134A1B68A262A34204BF0123A3612046D9
:1019F40000F020F86060204600F01CF8A06020464B
:101A040000F018F80022E06004216068FFF782FF0C
:101A140001220921A068FFF77DFF02221221E0685C
:101A2400FFF778FF0123A361D2E700BF6C1F000812
:101A340061190008F8B50746FFF7ACFF1E4B1E6896
:101A4400B36913B93046FFF7BDFF4836D6E9013410
:101A5400013B03D533680BB33668F7E7B4F90C5090
:101A6400D5B9164BE36004F15800656600F046F8FA
:101A7400FFF796FF2560C4E90155C4E90455A56143
:101A84000822294604F15C00FFF744FDC4E90D5522
:101A9400C4E912552046F8BD6834D9E70421384614
:101AA400FFF762FF044630600028D5D1FFF778FFC6
:101AB4000C233B60EEE700BF6C1F00080100FFFF32
:101AC4002DE9F8438046894600F14804002614B9FC
:101AD4003046BDE8F883D4E90175013F01D5246897
:101AE400F5E7AB89012B07D9B5F90E30013303D0E3
:101AF40029464046C84706436835EEE770477047B5
:101B0400704770B50E46B1F90E10002996B0144610
:101B14001D4607DA00232B60B3891A0610D44FF44C
:101B240080630EE06A4600F06FF90028F2DB019A48
:101B340002F47042A2F500535A425A412A60EEE779
:101B440040230020236016B070BD00008B8973B55C
:101B54009D0706460C4607D504F14703236023611D
:101B64000123636102B070BD01AB6A46FFF7C9FF90
:101B740000990546304600F077F848B9B4F90C30BE
:101B84009A05EFD423F0030343F00203A381E3E7B0
:101B94000D4BB362A389206043F08003A381009BB3
:101BA4006361019B20615BB1B4F90E10304600F013
:101BB4003DF928B1A38923F0030343F00103A38172
:101BC400A3891D43A581CDE76119000838B50546F1
:101BD400002945D051F8043C0C1F002BB8BFE41871
:101BE40000F046F91F4A1368104633B96360146065
:101BF4002846BDE8384000F041B9A3420CD9216819
:101C04006218934204BF1A685B68636004BF521889
:101C140022600460ECE713465A680AB1A242FAD97A
:101C240019685818A0420BD1206801445818824200
:101C34001960DDD1106852685A6001441960D7E711
:101C440002D90C232B60D3E7206821188A4204BFF1
:101C540011685268626004BF091821605C60C7E7BC
:101C640038BD00BF8C000020F8B5CD1C25F003055D
:101C740008350C2D38BF0C25002D064601DBA94282
:101C840003D90C2333600020F8BD00F0F1F821499A
:101C94000A6814469CB9204F3B6823B92146304654
:101CA40000F03CF838602946304600F037F8431C11
:101CB40023D10C233360304600F0E0F8E3E72368D7
:101CC4005B1B17D40B2B03D923601C44256004E051
:101CD4006368A2420CBF0B605360304600F0CEF83C
:101CE40004F10B00231D20F00700C21ACCD01B1AEC
:101CF400A350C9E722466468CCE7C41C24F003045B
:101D0400A042E3D0211A304600F008F80130DDD1BA
:101D1400CFE700BF8C0000209000002038B5064CAF
:101D2400002305460846236000F0E8F8431C02D16E
:101D3400236803B12B6038BDE800002010B50C46C1
:101D4400B1F90E1000F0A0F80028ABBF636DA389B1
:101D54001B1823F48053ACBF6365A38110BD2DE928
:101D6400F0411F468B89DB0505460C46164605D512
:101D740002230022B1F90E1000F068F8A389B4F927
:101D84000E1023F48053A38132463B462846BDE817
:101D9400F04100F017B810B50C46B1F90E1000F080
:101DA40055F8431CA38915BF606523F4805343F49D
:101DB4008053A38118BFA38110BDB1F90E1000F0A8
:101DC40013B8000038B5074C0546084611460022F2
:101DD40022601A4600F0A0F8431C02D1236803B124
:101DE4002B6038BDE800002038B5064C00230546BA
:101DF4000846236000F05AF8431C02D1236803B15B
:101E04002B6038BDE800002038B5074C0023054698
:101E140008461146236000F051F8431C02D12368A0
:101E240003B12B6038BD00BFE800002038B5064C74
:101E3400002305460846236000F048F8431C02D1FD
:101E4400236803B12B6038BDE800002038B5074C87
:101E5400054608461146002222601A4600F03EF864
:101E6400431C02D1236803B12B6038BDE800002075
:101E74000148FFF744BE00BFE00000200148FFF71F
:101E84003FBE00BFE000002038B5074C05460846B9
:101E94001146002222601A4600F028F8431C02D1A1
:101EA400236803B12B6038BDE8000020024B5822A0
:101EB4001A604FF0FF307047E8000020024B5822B0
:101EC4001A604FF0FF307047E8000020024B5822A0
:101ED4001A600020704700BFE8000020024B58221F
:101EE4001A604FF0FF307047E8000020024B582280
:101EF4001A604FF0FF307047E8000020044A05499B
:101F04001368002B08BF0B4618441060184670472E
:101F140094000020F0000020024B58221A604FF079
:101F2400FF307047E8000020F8B500BFF8BC08BCDB
:101F34009E467047F8B500BFF8BC08BC9E46704783
:101F440048656C6C6F20776F726C640D0000000044
:101F54000000000000000000010203040607080955
:101F64000000000001020304100000200000000033
:101F7400000000000000000000000000000000005D
:101F8400000000000000000000000000000000004D
:101F9400000000000000000000000000000000003D
:101FA400000000000000000000000000000000002D
:101FB400000000000000000000000000000000001D
:0C1FC40000000000000000000000000011
:081FD00034E2FF7F0100000074
:041FD800B901000843
:041FDC009501000863
:101FE00001000000100000000024F4001000002098
:101FF00000000000901F0008B01F0008701F0008BC
:1020000000000000000000000000000000000000D0
:1020100000000000000000000000000000000000C0
:1020200000000000000000000000000000000000B0
:1020300000000000000000000000000000000000A0
:102040000000000000000000000000000000000090
:040000050800147D5E
:00000001FF
