:020000040800F2
:10000000008001200D1000085D0600085F06000852
:10001000610600086306000865060008000000008D
:10002000000000000000000000000000670600085B
:1000300069060008000000006B0600086D06000855
:100040005D1000085D1000085D1000085D100008DC
:100050005D1000085D1000085D1000085D100008CC
:100060005D1000085D1000085D1000085D100008BC
:100070005D1000085D1000085D1000085D100008AC
:100080005D1000085D1000085D1000080000000011
:100090000000000000000000000000005D100008EB
:1000A0005D1000085D1000085D1000085D1000087C
:1000B0005D1000085D1000085D1000085D1000086C
:1000C0005D1000085D1000085D1000085D1000085C
:1000D0005D1000085D1000085D10000800000000C1
:1000E0005D1000085D1000085D10000800000000B1
:1000F0000000000000000000000000005D1000088B
:10010000000000005D1000085D1000085D10000890
:1001100000000000000000000000000000000000DF
:100120005D1000085D1000085D1000085D100008FB
:100130005D1000080000000000000000000000004A
:100140000000000000000000000000005D1000083A
:100150005D1000085D1000085D1000085D100008CB
:100160005D1000085D1000080000000000000000A5
:10017000000000000000000000000000000000007F
:10018000000000005D1000080000000000000000FA
:040190005D100008F6
:1001940010B5054C237833B9044B13B10448AFF3BD
:1001A40000800123237010BD0C000020000000001B
:1001B400B810000808B5034B1BB103490348AFF35B
:1001C400008008BD0000000010000020B8100008E6
:1001D40053B94AB9002908BF00281CBF4FF0FF31AA
:1001E4004FF0FF3000F074B9ADF1080C6DE904CEA6
:1001F40000F006F8DDF804E0DDE9022304B07047FE
:100204002DE9F047089E04468846002B40F085807F
:100214008A42154648D9B2FA82F24AB1C2F120079D
:1002240001FA02F320FA07F7954047EA03089440DD
:100234004FEA154E230CB8FBFEF71FFA85FC0EFBA4
:10024400178843EA084307FB0CF1994209D9EB18D4
:1002540007F1FF3080F0E380994240F2E080023FF2
:100264002B445B1AA4B2B3FBFEF00EFB103344EA3A
:10027400034400FB0CFCA44509D92C1900F1FF33FD
:1002840080F0CB80A44540F2C88002382C4440EA78
:100294000740A4EB0C0400271EB1D4400023C6E998
:1002A40000433946BDE8F087002A53D0B2FA82F2FF
:1002B400002A40F0B680491B4FEA154E1FFA85F814
:1002C4000127B1FBFEFC230C0EFB1C1143EA014386
:1002D40008FB0CF1994207D9EB180CF1FF3002D25C
:1002E400994200F2EC808446591AA3B2B1FBFEF0A5
:1002F4000EFB101443EA044408FB00F8A04507D998
:100304002C1900F1FF3302D2A04500F2DC8018461C
:10031400A4EB080440EA0C40BEE78B4208D9002E47
:1003240078D00027C6E9000138463946BDE8F08791
:10033400B3FA83F77FB98B4202D3824200F2BD80C5
:10034400841A61EB030301209846002EA9D0C6E964
:100354000048A6E7FFDEC7F12005BB4022FA05FCF2
:100364004CEA030C01FA07F420FA05F821FA05F324
:100374004FEA1C4E48EA0404B3FBFEF9210C0EFBC1
:1003840019331FFA8CF841EA034309FB08FA9A452A
:1003940002FA07F200FA07F10BD91CEB030309F187
:1003A400FF3080F088809A4540F28580A9F10209E7
:1003B4006344A3EB0A03A4B2B3FBFEF00EFB1033B9
:1003C40044EA034400FB08F8A04508D91CEB0404E4
:1003D40000F1FF336BD2A04569D90238644440EA86
:1003E4000940A4EB0804A0FB02894C45C6464B46D1
:1003F40054D351D0002E69D0B1EB0E0264EB030448
:1004040004FA05F522FA07F3FC401D43C6E900543B
:10041400002746E73746304643E7184637E707469E
:100424001FE7C2F1200320FA03F7954001FA02F016
:1004340021FA03F34FEA154E3843010CB3FBFEF7E0
:100444001FFA85F80EFB173341EA034107FB08F353
:100454008B4204FA02F407D9691807F1FF3C28D249
:100464008B4226D9023F2944CB1A81B2B3FBFEF05A
:100474000EFB103341EA034100FB08F38B4207D91A
:10048400691800F1FF3C10D28B420ED9023829447E
:10049400C91A40EA074714E74145ABD2B8EB020E4C
:1004A40069EB0C0201381346A4E76046F0E71846EE
:1004B40095E76746D8E781467BE7384645E7ACF1E0
:1004C400020C2B4410E702382C4421E73746E8E6B7
:1004D400704700BF30B589B0002403940494059498
:1004E400069407940194174B1A6B42F004021A63A2
:1004F4001A6B02F004020192019A02941A6B42F000
:1005040001021A631B6B03F001030293029B0E4D5D
:1005140022462021284600F088FC4FF40053039320
:100524000494059403A9094800F0A6FB202303932F
:10053400012304930594069403A9284600F09CFB28
:1005440009B030BD003802400000024000080240FB
:1005540030B595B03022002108A800F0A3FD002496
:100564000394049405940694079401941B4B1A6C09
:1005740042F080521A641B6C03F080530193019B78
:100584000294174A136823F4404343F4004313606E
:10059400136803F440430293029B02250895012348
:1005A4000B9310230C930E950F9408231093482358
:1005B400119312950723139308A800F079F80F23D9
:1005C40003930495902305934FF480530693079463
:1005D400214603A800F0A2FA15B030BD003802404D
:1005E4000070004038B500F0A9FCFFF7B1FFFFF739
:1005F40071FF1FE001222021154800F016FC0024A1
:1006040011E0134D00222021284600F00EFCFA20B0
:1006140000F0C0FC01222021284600F006FCFA204C
:1006240000F0B8FC0134022CEBDD00222021084844
:1006340000F0FBFB4FF40051064800F0EFFB0128EB
:10064400D8D100222021024800F0EFFBF2E700BFDE
:1006540000000240000802407047FEE7FEE7FEE7A4
:10066400FEE770477047704708B500F081FC08BD8D
:1006740000B583B0002100910C4B5A6C42F48042C7
:100684005A645A6C02F480420092009A01911A6CE6
:1006940042F080521A641B6C03F080530193019B57
:1006A400072000F0C9FB03B05DF804FB00380240EA
:1006B400002800F0B98170B582B00446036813F0D5
:1006C400010F3BD0A64B9B6803F00C03042B2CD0EA
:1006D400A34B9B6803F00C03082B21D06368B3F58C
:1006E400803F4FD0B3F5A02F52D09D4B1A6822F40F
:1006F40080321A601A6822F480221A606368002B20
:1007040050D000F041FC0546954B1B6813F4003FA4
:1007140014D100F039FC401B6428F5D903208AE188
:100724008F4B5B6813F4800FD8D08D4B1B6813F488
:10073400003F03D06368002B00F07881236813F036
:10074400020F54D0864B9B6813F00C0F3ED0844BA1
:100754009B6803F00C03082B33D0E368002B67D0AD
:10076400804B01221A6000F00FFC05467C4B1B688D
:1007740013F0020F53D100F007FC401B0228F5D9F7
:10078400032058E1764A136843F480331360B5E7D5
:10079400734B1A6842F480221A601A6842F4803259
:1007A4001A60ABE700F0F0FB05466D4B1B6813F4D1
:1007B400003FC3D000F0E8FB401B6428F5D90320B8
:1007C40039E1674B5B6813F4800FC6D1644B1B6837
:1007D40013F0020F03D0E368012B40F02981604A33
:1007E400136823F0F803216943EAC1031360236803
:1007F40013F0080F40D0636963B35B4B01221A60A6
:1008040000F0C2FB0546564B5B6F13F0020F33D169
:1008140000F0BAFB401B0228F5D903200BE1504A33
:10082400136823F0F803216943EAC1031360DEE788
:100834004C4B00221A6000F0A7FB0546484B1B688E
:1008440013F0020FD3D000F09FFB401B0228F5D910
:100854000320F0E0444B00221A6000F095FB0546AB
:100864003F4B5B6F13F0020F06D000F08DFB401B73
:100874000228F5D90320DEE0236813F0040F78D0B2
:10088400374B1B6C13F0805F33D100230193344B3F
:100894001A6C42F080521A641B6C03F0805301936B
:1008A400019B0125314B1B6813F4807F23D0A3687F
:1008B400012B34D0052B38D0294B1A6F22F00102BA
:1008C4001A671A6F22F004021A67A368002B36D045
:1008D40000F05AFB0646224B1B6F13F0020F47D160
:1008E40000F052FB801B41F288339842F3D9032075
:1008F400A1E00025D6E71D4A136843F48073136012
:1009040000F042FB0646194B1B6813F4807FCED1DE
:1009140000F03AFB801B0228F5D903208BE0104A33
:10092400136F43F001031367CFE70D4B1A6F42F0C7
:1009340004021A671A6F42F001021A67C5E700F051
:1009440023FB0646064B1B6F13F0020F10D000F07A
:100954001BFB801B41F288339842F3D903206AE0E1
:100964000038024000004742800E474200700040B9
:10097400E5B9A369002B5DD0314A926802F00C02FC
:10098400082A5AD0022B17D02E4B00221A6000F0EE
:10099400FBFA04462A4B1B6813F0007F42D000F098
:1009A400F3FA001B0228F5D9032044E0244A136C0F
:1009B40023F080531364DCE7224B00221A6000F01A
:1009C400E3FA05461E4B1B6813F0007F06D000F0C7
:1009D400DBFA401B0228F5D903202CE0E369226AE4
:1009E4001343626A43EA8213A26A5208013A43EA51
:1009F4000243E26A43EA0263114A5360114B012243
:100A04001A6000F0C1FA04460D4B1B6813F0007F16
:100A140006D100F0B9FA001B0228F5D903200AE038
:100A2400002008E0002006E001207047012002E0D9
:100A3400012000E0002002B070BD0120FBE700BFF0
:100A44000038024060004742314B9B6803F00C03BE
:100A5400042B58D0082B58D170B52D4B5A6802F08E
:100A64003F025B6813F4800F2AD0294B5868C0F307
:100A740088100546002643011B1A66EB0604A101F3
:100A840041EA93619801C01A61EB0401CB0043EA87
:100A94005073C4001946601946EB01014B0243EA46
:100AA400D0534402204619463346FFF791FB184BB6
:100AB4005B68C3F3014301335B00B0FBF3F070BD2B
:100AC400134B5868C0F388100546002643011B1ACF
:100AD40066EB0604A10141EA93619801C01A61EB37
:100AE4000401CB0043EA5073C4001946601946EB75
:100AF40001018B0243EA905384022046194633468F
:100B0400FFF766FBD3E7034870470348704700BF0D
:100B14000038024000127A000024F400002800F09B
:100B24009A8070B50446504B1B6803F00F038B4248
:100B340008D2CBB24C4A1370136803F00F038B42F4
:100B440040F08B80236813F0020F17D013F0040FCA
:100B540004D0464A936843F4E0539360236813F047
:100B6400080F04D0414A936843F4604393603F4ABA
:100B7400936823F0F003A068034393600D46236851
:100B840013F0010F32D06368012B21D09A1E012A81
:100B940025D9364A126812F0020F60D033498A68A8
:100BA40022F0030213438B6000F0EEF906462F4B4C
:100BB4009B6803F00C036268B3EB820F16D000F05D
:100BC400E3F9801B41F288339842F0D9032041E0D5
:100BD400264A126812F4003FE0D101203AE0234A89
:100BE400126812F0007FD9D1012033E01E4B1B683C
:100BF40003F00F03AB4207D9EAB21B4B1A701B6810
:100C040003F00F03AB422CD1236813F0040F06D07A
:100C1400164A936823F4E053E1680B439360236816
:100C240013F0080F07D0114A936823F46043216935
:100C340043EAC1039360FFF707FF0C4B9B68C3F3C0
:100C440003130B4AD35CD8400A4B1860002000F011
:100C54004FF9002070BD012070470120FAE7012000
:100C6400F8E70120F6E700BF003C024000380240EC
:100C7400D01000080800002000230F2B00F2C480CD
:100C8400F0B482B039E0042200E00022B2403A43DA
:100C940002355E4E46F825205D4A1568E24302EAB5
:100CA40005064F6817F4803F01D044EA0506584D05
:100CB4002E606D6802EA05064F6817F4003F01D004
:100CC40044EA0506524D6E60AD6802EA05064F68B7
:100CD40017F4801F01D044EA05064D4DAE60ED685F
:100CE4002A404E6816F4001F01D044EA0502484C1D
:100CF400E26001330F2B00F2848001229A400C68D9
:100D04001440A242F5D14D68022D01D0122D10D10C
:100D1400DE08083650F826C003F00705AF000F259B
:100D2400BD402CEA050C0D69BD4045EA0C0540F8B0
:100D3400265006685F000325BD40ED4305EA060C16
:100D44004E6806F00306BE4046EA0C0606604E688E
:100D540006F1FF3CBCF1010F03D9112E01D0122E74
:100D640010D1866805EA060CCE68BE4046EA0C0639
:100D74008660466826EA02024E68C6F300169E4064
:100D840016434660C26815408A68BA402A43C26066
:100D94004A6812F0805FACD0002201921D4A556C63
:100DA40045F480455564526C02F480420192019AE4
:100DB4009D08AE1C154A52F8267003F003029600F3
:100DC4000F22B24027EA0207134A90423FF45DAF74
:100DD40002F5806290420ED002F5806290420CD0FF
:100DE40002F5806290420AD002F5806290423FF49C
:100DF4004AAF07224AE7012248E7022246E70322D4
:100E040044E702B0F0BC7047704700BF00380140AF
:100E1400003C0140003802400000024003691942CE
:100E240001D001207047002070470AB181617047EA
:100E34000904816170470000074AD36823F4E06322
:100E44001B041B0C000200F4E060184340F0BF6078
:100E540040F40030D060704700ED00E030B4174B30
:100E6400DB68C3F30223C3F10704042C28BF042462
:100E74001D1D062D01D9033B00E000234FF0FF3573
:100E840005FA04F421EA0401994005FA03F322EA7D
:100E940003031943002809DB0901C9B200F16040CA
:100EA40000F5614080F8001330BC704700F00F007B
:100EB4000901C9B2024B1954F6E700BF00ED00E086
:100EC40014ED00E00138B0F1807F0AD2064B58607F
:100ED400064AF02182F823100020986007221A6045
:100EE40070470120704700BF10E000E000ED00E013
:100EF40010B504460E4B18784FF47A73B3FBF0F335
:100F04000C4A1068B0FBF3F0FFF7DCFF68B90F2C54
:100F140001D901200AE0002221464FF0FF30FFF7FB
:100F24009DFF054B1C60002000E0012010BD00BFA8
:100F340000000020080000200400002008B50B4B2E
:100F44001A6842F400721A601A6842F480621A60E5
:100F54001A6842F480721A600320FFF76DFF0020C4
:100F6400FFF7C6FFFFF784FB002008BD003C0240EA
:100F7400034A1168034B1B780B441360704700BF8E
:100F84002800002000000020014B1868704700BFB3
:100F94002800002038B50446FFF7F6FF0546B4F1F3
:100FA400FF3F02D0044B1B781C44FFF7EDFF401BAE
:100FB400A042FAD338BD00BF000000200F49D1F889
:100FC400883043F47003C1F888300D4B1A6842F03E
:100FD40001021A60002098601A6822F0847222F4D8
:100FE40080321A60074A5A601A6822F480221A6012
:100FF400D8604FF000638B60704700BF00ED00E0E5
:101004000038024010300024DFF834D0002103E01F
:101014000C4B5B58435004310B480C4B42189A421A
:10102400F6D30B4A02E0002342F8043B094B9A42F0
:10103400F9D3FFF7C3FF00F011F8FFF7D3FA7047B5
:1010440000800120F0100008000000200C000020A7
:101054000C0000202C000020FEE7000070B50D4DB0
:101064000D4C641BA4100026A64209D10B4D0C4C58
:1010740000F020F8641BA4100026A64205D170BD20
:1010840055F8043B98470136EEE755F8043B98477A
:101094000136F2E7E8100008E8100008E81000083C
:1010A400EC10000802440346934200D1704703F851
:1010B400011BF9E7F8B500BFF8BC08BC9E467047B1
:0C10C400F8B500BFF8BC08BC9E467047A1
:1010D00000000000000000000102030406070809E8
:0810E00024F1FF7F0100000074
:0410E800B901000842
:0410EC009501000862
:0C10F00001000000100000000024F400CB
:040000050800100DD2
:00000001FF
